:100000004BC1000064C1000062C1000060C100007B
:100010005EC100005CC100005AC1000058C1000070
:1000200056C1000054C1000061C30000E1C30000DC
:100030004EC100004CC100004AC1000048C1000090
:1000400046C1000044C1000042C1000040C10000A0
:100050003EC100003CC100003AC1000039C10000AF
:1000600036C1000034C1000032C1000030C10000C0
:100070002EC100002CC100002AC1000028C10000D0
:1000800026C1000024C1000022C1000020C10000E0
:100090001EC100001CC100001AC1000018C10000F0
:1000A00016C1000014C1000012C10000F6012602B2
:1000B000080226020B0226020E022602EF01260289
:1000C000110226021402260217022602F901260254
:1000D000FF012602020226020502EC01FC012602B3
:1000E000240226021A0226021F020A0020004D6581
:1000F0006469612052656C656173656420000A0063
:1001000020004B65792052656C6561736564200041
:100110000A0020004D656469612050726573736543
:100120006420004B6579205072657373656420000C
:100130000A004279746520526563656976656420BA
:100140000041746172692043582D38350A0000015E
:100150000000A5011200020000B7015400210000B8
:10016000C90109002200000B023F00210100E20149
:1001700009002201004A021900210200FB010900C6
:100180002202006302150003000078020401030943
:10019000047C020C020309048A020C01C10601C19D
:1001A0000601C126001201000200000020C0167DD9
:1001B0000400010102000109025400030100C032E1
:1001C00009040000010301010009211101000122BD
:1001D0003F000705810308000A090401000103002C
:1001E00000000921110100012219000705820308FE
:1001F000000A0904020001030000000921110100A6
:10020000012215000705830320000A05010906A144
:100210000175019508050719E029E71500250181F9
:1002200002950175088103950575010508190129D5
:100230000591029501750391039506750815002532
:10024000680507190029688100C0050C0901A10192
:1002500085031501269C0219012A9C02751095013F
:100260008100C00631FF0974A1537508150026FFEF
:1002700000952009758102C0040309040C034100A4
:10028000740061007200690000000C034300580014
:100290002D0038003500000011241FBECFEFDAE03A
:1002A000DEBFCDBF11E0A0E0B1E0E6EEFBE002C0B2
:1002B00005900D92A230B107D9F711E0A2E0B1E0AC
:1002C00001C01D92A531B107E1F722D08AC498CEB2
:1002D0001F920F920FB60F9211242F938F939F931B
:1002E0008091020190910301019690930301809304
:1002F0000201895E914020F01092030110920201E8
:100300009F918F912F910F900FBE0F901F90189576
:100310003F924F925F926F927F928F929F92AF9295
:10032000BF92CF92DF92EF92FF920F931F93CF93E2
:10033000DF9380E8809361001092610014B88FEF22
:1003400085B9DDD0F3D08823E9F380E197E220E995
:1003500031E0F9013197F1F70197D9F714BC85E045
:1003600085BD81E080936E0081E491E026D40FEF9B
:10037000B3E63B2EA6EBEA2EF12CC5EBD0E0F1E67E
:100380004F2EE0E65E2E7FE5672E6EE5862E5DE55C
:10039000752E4CE5942E3BE5B32E2AE5A22E99E569
:1003A000C92E82E6D82E83B180FD76C0182F16950F
:1003B0001F71101709F49EC0812F90E0FC01319746
:1003C000EF31F10508F042C0EA5AFF4FEE0FFF1F70
:1003D0000590F491E02D09948DEC90E002C089EE37
:1003E00090E0909312018093110130C08AEE90E06A
:1003F000F8CF82EE90E0F5CFD092050127C0C092F1
:10040000050124C0A092050121C0B09205011EC0C3
:10041000909205011BC07092050118C080920501E1
:1004200015C06092050112C0509205010FC04092A4
:1004300005010CC0D0931201C093110107C0F092C6
:100440001201E092110102C030920501E8D071D092
:1004500082E391E0B2D3812F80D380E391E0ADD3EA
:1004600080910501882319F083E291E0A6D3809161
:10047000110190911201892B19F084E191E09DD333
:10048000812F91D382E191E098D3802F8CD380E1AA
:1004900091E093D3012F2EC080910501882389F02C
:1004A00082E091E08AD380E07ED380E091E085D342
:1004B000802F79D38EEF90E080D31092050139D050
:1004C00000E08091110190911201892B99F08EEE3C
:1004D00090E073D380E067D38CEE90E06ED3802FF2
:1004E00062D38AEE90E069D310921201109211014A
:1004F00096D000E080E49FE10197F1F754CF81E0CE
:100500008093D70080EA8093D80082E189BD09B446
:1005100000FEFDCF80E98093D8001092E000109299
:100520000C018CE08093E2007894089580910C0196
:10053000089580910C01882309F441C02FB7F894E5
:1005400081E08093E9009091E4009E5C31E080912D
:10055000E80085FD0EC02FBF80910C01882379F142
:100560008091E400891759F12FB7F8943093E9008E
:10057000EECF809104018093F1001092F100809100
:1005800005018093F100809106018093F100809134
:1005900007018093F100809108018093F100809120
:1005A00009018093F10080910A018093F1008AE3B0
:1005B0008093E80010920D012FBF80E008958FEF27
:1005C0000895382F80910C01882339F12FB7F894C2
:1005D00082E08093E9009091E4009E5C42E080918B
:1005E000E80085FD0EC02FBF80910C018823A9F083
:1005F0008091E400891789F02FB7F8944093E900BF
:10060000EECF3093F1006093F1007093F1008AE334
:100610008093E8002FBF80E008958FEF08956091E8
:1006200011017091120180911301909114016817CA
:10063000790719F420E030E011C083E0C2DF282FF1
:10064000332727FD30952115310541F480911101A3
:10065000909112019093140180931301822F0895B9
:10066000482F80910C01882309F43EC02FB7F894DD
:1006700083E08093E90080911001882341F080910C
:10068000E80085FD02C02FBF12C0109210019091AA
:10069000E4009C5F33E08091E80085FD13C02FBF2C
:1006A0008091E400891729F481E0809310018FEF95
:1006B000089580910C018823B9F02FB7F8943093F6
:1006C000E900E9CF4093F1008091E80085FD06C084
:1006D0008AE38093E80010920E0103C082E08093C9
:1006E0000E012FBF80E008958FEF08951F920F92A3
:1006F0000FB60F9211242F938F939F938091E10057
:100700001092E100982F83FF0FC01092E90081E062
:100710008093EB001092EC0082E28093ED0088E081
:100720008093F00010920C0192FF5AC080910C014E
:10073000882309F455C080910E01882391F08150DF
:1007400080930E01882369F483E08093E90002C05E
:100750001092F1008091E80085FDFACF8AE3809342
:10076000E800209100012223D9F180910F018F5FD1
:1007700080930F0190E083709070892B89F581E060
:100780008093E9008091E80085FF2AC080910D01E7
:100790008F5F80930D01821719F510920D018091E2
:1007A00004018093F1001092F10080910501809383
:1007B000F100809106018093F10080910701809300
:1007C000F100809108018093F100809109018093EC
:1007D000F10080910A018093F1008AE38093E800A0
:1007E0009F918F912F910F900FBE0F901F90189592
:1007F0001F920F920FB60F9211242F933F934F9396
:100800005F936F937F938F939F93AF93BF93CF9398
:10081000DF93EF93FF931092E9008091E80083FF4C
:1008200086C14091F1003091F1008091F100A82F34
:10083000B0E02091F100922F80E0A82BB92B80919D
:10084000F100682F70E02091F100922F80E0682B7A
:10085000792B8091F100C82FD0E02091F100922FE8
:1008600080E0C82BD92B82EF8093E800363009F066
:1008700056C025E531E0A90145505040F9013797B0
:10088000859194918A179B07E1F4FA0185919491DF
:1008900086179707B1F49A012E5F3F4FF9016591D2
:1008A00074912E5F3F4FF9012491CE01CF3FD105C6
:1008B00019F010F08FEF90E0422F821758F4482F74
:1008C00009C0295F3F4F495F5F4FF1E0223A3F0780
:1008D000A9F62DC15EEF8091E800282F30E0C90114
:1008E00085709070892BB9F322FD24C1342F4132D9
:1008F00008F030E2232FCB0106C0FC010196E49101
:10090000E093F10021502223C1F7630F711D431BB7
:100910005093E8004423F9F63032E9F20BC1353048
:1009200061F48EEF8093E8008091E80080FFFCCFB7
:100930008A2F80688093E300FDC0393031F544236D
:1009400009F070C0A0930C018EEF8093E8008BE952
:1009500091E021E02093E900FC010196E491E0930D
:10096000EB00EE2369F0AC014F5F5F4FFC01849117
:100970008093EC00CA010196FA0134913093ED00A6
:100980002F5F253039F78EE148C0383051F44038B8
:1009900009F048C08091E80080FFFCCF80910C01F5
:1009A0007CC03323D1F48091E80080FFFCCF423833
:1009B00011F080E00DC06093E9008091EB0090E0C1
:1009C00025E0969587952A95E1F781701092E900C8
:1009D0008093F1001092F1007FC0313011F033307C
:1009E00009F54230F9F41097E9F4262F2F77822F7A
:1009F00081508430B8F48EEF8093E8002093E900B2
:100A0000333009F494C089E18093EB0081E090E0F9
:100A100002C0880F991F2A95E2F78093EA0010928E
:100A2000EA0088C06115710509F05AC0413AC1F564
:100A3000313009F58091E80080FFFCCF80910401FE
:100A40008093F1001092F100809105018093F100F4
:100A5000809106018093F100809107018093F1005D
:100A6000809108018093F100809109018093F10049
:100A700080910A0112C0323039F48091E80080FF81
:100A8000FCCF8091000109C0333009F050C0809143
:100A9000E80080FFFCCF809101018093F1001CC031
:100AA000413209F044C0393061F48091E80082FF9E
:100AB000FCCF8091F10080930B018BEF8093E800D5
:100AC0000BC03A3029F4B093000110920D0104C01C
:100AD0003B3069F5A09301018EEF8093E8002AC0B6
:100AE0006230710521F5313011F5413A01F54C2F95
:100AF0005EEF8091E800282F30E0C901857090708A
:100B0000892BB9F322FD16C0942F413208F090E2F0
:100B1000892F03C01092F10081508823D9F7491B17
:100B20005093E800442329F7903219F303C081E27F
:100B30008093EB00FF91EF91DF91CF91BF91AF9147
:100B40009F918F917F916F915F914F913F912F91E5
:100B50000F900FBE0F901F9018950F931F93CF9378
:100B6000DF93C0E0D0E0082F10E0C8010C2E02C0D7
:100B7000959587950A94E2F780FF02C081E301C052
:100B800080E36EDD2196C830D10579F7DF91CF91F2
:100B90001F910F910895982F8A3010F087E301C0BC
:100BA00080E3890F5DCD1F93182F82958F70F3DF3F
:100BB000812F8F70F0DF1F9108951F93CF93DF93E4
:100BC000EC01FE0121961491112339F01A3011F431
:100BD0008DE046DD812F44DDF4CFDF91CF911F9171
:060BE0000895F894FFCF18
:020BE6007D018F
:00000001FF
